:100000000C9434000C9453000C9451000C94510047
:100010000C9451000C9451000C9451000C9451001C
:100020000C9451000C9451000C9451000C9451000C
:100030000C9451000C9451000C9451000C945100FC
:100040000C9451000C9451000C9451000C945100EC
:100050000C9451000C9451000C9451000C945100DC
:100060000C9451000C94510011241FBECFEFD8E026
:10007000DEBFCDBF11E0A0E0B1E0EAEAF2E002C0ED
:1000800005900D92A231B107D9F721E0A2E1B1E0CC
:1000900001C01D92A232B207E1F70E9473000C94D6
:1000A00053010C9400001F920F920FB60F9211246F
:1000B0008F938091120181508093120181110DC0A4
:1000C0008FE08A95F1F700C0549A00C00000549860
:1000D000E8982D9881E0809313018F910F900FBEC7
:1000E0000F901F901895259A1092130178945298AA
:1000F0004A9B4CC04A99FECF4A9BFECF8CED95E0BF
:100100004A9947C00197E1F78FE0809312012D9A39
:10011000E09A80916900836080936900E89A8091F9
:1001200013018130E1F756985798109214012FEF80
:1001300085EA9EE0215080409040E1F700C0000039
:1001400029E180E197E2019739F01999FCCF21501C
:1001500019F581E08093140145E08FE99FE0019754
:10016000F1F700C00000E6E1F1E099E080E0915095
:10017000C9F04E99FECF4E9BFECF282F30E035952B
:100180002795822F4F9BF3CF8068F1CF4A9BFECFFC
:10019000B5CF4A99FECFB2CF1999D5CF009799F232
:1001A0000197FACF819391E0E232F907F1F690914D
:1001B000170180911501911164C090911C0191115A
:1001C00060C030911601232F207D203459F4909186
:1001D0001801903A70F4913029F4909119019350DC
:1001E000953F38F4882341F0313019F0203409F07C
:1001F00048C08F5F80931501809115018A3008F403
:10020000ACCF2D9A209A289880911401811102C0B8
:10021000219A299830E020E0F90183E0F595E795EF
:100220008A95E1F7E050FF4F808190E0522F5770A0
:1002300002C0959587955A95E2F7817090911401C7
:10024000992321F19EE11999FECF2898199BFECFA1
:100250008111289A9150B9F72F5F3F4F2C32310509
:10026000D9F6209A289880911401811101C0219813
:1002700080911401811101C021982D98409315019E
:100280006CCF882309F4B8CF8150B4CF811109C055
:100290002898209A8FE79EE30197F1F700C00000AD
:0A02A000DBCF2098F7CFF894FFCFD2
:1002AA0059C94B5DDA0259C94B5DFA0259C94B5D0E
:0202BA00EA0256
:00000001FF
