:100000000C9434000C9472000C9453000C94510026
:100010000C9451000C9451000C9451000C9451001C
:100020000C9451000C9451000C9451000C9451000C
:100030000C9451000C9451000C9451000C945100FC
:100040000C9451000C9451000C9451000C945100EC
:100050000C9451000C9451000C9451000C945100DC
:100060000C9451000C94510011241FBECFEFD8E026
:10007000DEBFCDBF11E0A0E0B1E0E8E3F3E002C0F5
:1000800005900D92A231B107D9F721E0A2E1B1E0CC
:1000900001C01D92A232B207E1F70E9493000C94B6
:1000A0009A010C9400001F920F920FB60F92112428
:1000B0008F938091120181508093120181110CC0A5
:1000C00080E18A95F1F7549A00C000005498E998AD
:1000D0002D9882E0809313018F910F900FBE0F90A7
:1000E0001F9018951F920F920FB60F9211248F93A5
:1000F0008091120181508093120181110EC08FE016
:100100008A95F1F75C9A549A00C000005C98549864
:10011000E8982D9881E0809313018F910F900FBE86
:100120000F901F901895259A109213017894529869
:100130004A9B10C04A99FECF4A9BFECF80E089308F
:1001400079F02CED35E04A9908C021503109D9F7F2
:100150008F5FF5CF4A9BFECFF1CF4A99FECFEFCF0D
:100160008BE3809312012D9AE09A8091690083605D
:1001700080936900E89A809113018130E1F75398E8
:100180008AE28093120180E08E3C61F02CED35E034
:100190004A9905C021503109D9F78F5FF5CF4A99A7
:1001A000FECFF2CF2D9AE19A80916900837F88601B
:1001B00080936900E99A809113018230E1F75698A3
:1001C0005798109214012FEF85EA9EE0215080404D
:1001D0009040E1F700C0000029E180E197E201973B
:1001E00039F01999FCCF2150F9F481E08093140182
:1001F00042E251E065E08FE99FE00197F1F700C02E
:100200000000E6E1F1E099E080E0915099F04E992C
:10021000FECF4E9BFECF282F30E035952795822FBD
:100220004F9BF3CF8068F1CF1999D9CF0097B9F2DE
:100230000197FACF81934E175F0729F79091170125
:1002400080911501911164C090911C01911160C0C1
:1002500030911601232F207D203459F490911801FC
:10026000903A70F4913029F4909119019350953F90
:1002700038F4882341F0313019F0203409F048C0B7
:100280008F5F80931501809115018A3008F4B3CFF8
:100290002D9A209A289880911401811102C0219AE8
:1002A000299830E020E0F90183E0F595E7958A95FB
:1002B000E1F7E050FF4F808190E0722F777002C02D
:1002C000959587957A95E2F781709091140199231D
:1002D00021F19EE11999FECF2898199BFECF81113B
:1002E000289A9150B9F72F5F3F4F2C323105D9F63C
:1002F000209A289880911401811101C02198809141
:100300001401811101C021982D986093150173CFBC
:10031000882309F4B8CF8150B4CF811109C028983F
:10032000209A8FE79EE30197F1F700C00000DBCF32
:080330002098F7CFF894FFCFED
:1003380059C94B5DDA0259C94B5DFA0259C94B5D7F
:02034800EA02C7
:00000001FF
