:100000000C9434000C9451000C9451000C94510049
:100010000C9451000C9451000C9451000C9451001C
:100020000C9451000C9451000C9451000C9451000C
:100030000C9451000C9451000C9451000C945100FC
:100040000C9451000C9451000C9451000C945100EC
:100050000C9451000C9451000C9451000C945100DC
:100060000C9451000C94510011241FBECFEFD8E026
:10007000DEBFCDBF11E0A0E0B1E0E0E2F2E002C0FF
:1000800005900D92A231B107D9F721E0A2E1B1E0CC
:1000900001C01D92A032B207E1F70E9453000C94F8
:1000A0000E010C940000259A569857981092120150
:1000B0002FEF85EA9EE0215080409040E1F700C09C
:1000C000000029E180E197E2019739F01999FCCF0E
:1000D0002150E9F481E08093120145E08FE99FE02F
:1000E0000197F1F700C00000E4E1F1E099E080E061
:1000F000915099F04E99FECF4E9BFECF282F30E0C5
:1001000035952795822F4F9BF3CF8068F1CF1999B2
:10011000DBCF0097C9F20197FACF819391E0E032EB
:10012000F90721F79091150180911301911164C095
:1001300090911A01911160C030911401232F207DFC
:10014000203459F490911601903A70F4913029F4CA
:10015000909117019350953F38F4882341F0313046
:1001600019F0203409F048C08F5F8093130180910B
:1001700013018A3008F4B2CF2D9A209A28988091E2
:100180001201811102C0219A299830E020E0F90182
:1001900083E0F595E7958A95E1F7E050FF4F848578
:1001A00090E0522F577002C0959587955A95E2F7C7
:1001B000817090911201992321F19EE11999FECF4E
:1001C0002898199BFECF8111289A9150B9F72F5F7B
:1001D0003F4F2C323105D9F6209A28988091120190
:1001E000811101C0219880911201811101C02198D3
:1001F0002D984093130172CF882309F4B8CF815012
:10020000B4CF811109C02898209A8FE79EE3019707
:10021000F1F700C00000DBCF2098F7CFF894FFCFB4
:1002200059C94B5DDA0259C94B5DFA0259C94B5D98
:02023000EA02E0
:00000001FF
