:100000000C9434000C9451000C9451000C94510049
:100010000C9451000C9451000C9451000C9451001C
:100020000C9451000C9451000C9451000C9451000C
:100030000C9451000C9451000C9451000C945100FC
:100040000C9451000C9451000C9451000C945100EC
:100050000C9451000C9451000C9451000C945100DC
:100060000C9451000C94510011241FBECFEFD8E026
:10007000DEBFCDBF11E0A0E0B1E0E8E4F2E002C0F5
:1000800005900D92A231B107D9F721E0A2E1B1E0CC
:1000900001C01D92A032B207E1F70E9453000C94F8
:1000A00022010C940000259A56985798109212013C
:1000B0002FEF85EA9EE0215080409040E1F700C09C
:1000C000000029E180E197E2019739F01999FCCF0E
:1000D0002150F1F481E080931201B6E0A5E08FE9B0
:1000E0009FE00197F1F700C00000E4E1F1E099E042
:1000F00080E0915099F04E99FECF4E9BFECF282F75
:1001000030E035952795822F4F9BF3CF8068F1CF54
:100110001999DACF0097C1F20197FACF819391E054
:10012000E032F90721F790911501809113019111A7
:1001300077C090911A01911173C030911401232F4F
:10014000207D203459F490911601903A70F491304A
:1001500029F4909117019350953F38F4882341F08A
:10016000313019F0203409F05BC08F5F80931301A8
:10017000809113018A3008F4B2CF2D9A209A2898E2
:1001800080911201811102C0219A299850E040E02B
:1001900030E020E0B49FB001B59F700D1124605095
:1001A0007F4FF90183E0F595E7958A95E1F7E60F32
:1001B000F71F808190E0E22FE77002C09595879548
:1001C000EA95E2F7817090911201992371F19EE115
:1001D0001999FECF2898199BFECF8111289A91502A
:1001E000B9F72F5F3F4F2C323105D9F6209A289866
:1001F0009FEF24E684E0915020408040E1F700C06A
:1002000000004F5F5F4F4330510509F0C1CF80912F
:100210001201811101C021982D98A09313015FCF85
:10022000882309F4A5CF8150A1CF811109C0289856
:10023000209A8FE79EE30197F1F700C00000D1CF2D
:080240002098F7CFF894FFCFDE
:1002480059C94B5DDA0259C94B5DFA0259C94B5D70
:02025800EA02B8
:00000001FF
